{
  "address": "0xC8ABC28Bf9752506BE134420fF89E36b474c3398",
  "abi": [
    {
      "inputs": [
        {
          "internalType": "uint64",
          "name": "minBatchAge_",
          "type": "uint64"
        }
      ],
      "stateMutability": "nonpayable",
      "type": "constructor"
    },
    {
      "inputs": [
        {
          "internalType": "uint256",
          "name": "batchId",
          "type": "uint256"
        },
        {
          "internalType": "address",
          "name": "user",
          "type": "address"
        }
      ],
      "name": "AlreadyClaimed",
      "type": "error"
    },
    {
      "inputs": [
        {
          "internalType": "uint256",
          "name": "batchId",
          "type": "uint256"
        }
      ],
      "name": "BatchNotCancelled",
      "type": "error"
    },
    {
      "inputs": [
        {
          "internalType": "uint256",
          "name": "batchId",
          "type": "uint256"
        }
      ],
      "name": "BatchNotDispatchable",
      "type": "error"
    },
    {
      "inputs": [
        {
          "internalType": "uint256",
          "name": "batchId",
          "type": "uint256"
        }
      ],
      "name": "BatchNotOpen",
      "type": "error"
    },
    {
      "inputs": [
        {
          "internalType": "uint256",
          "name": "batchId",
          "type": "uint256"
        }
      ],
      "name": "BatchNotSettled",
      "type": "error"
    },
    {
      "inputs": [
        {
          "internalType": "uint256",
          "name": "batchId",
          "type": "uint256"
        },
        {
          "internalType": "uint64",
          "name": "readyAt",
          "type": "uint64"
        }
      ],
      "name": "BatchTooYoung",
      "type": "error"
    },
    {
      "inputs": [],
      "name": "HandlesAlreadySavedForRequestID",
      "type": "error"
    },
    {
      "inputs": [],
      "name": "InvalidKMSSignatures",
      "type": "error"
    },
    {
      "inputs": [
        {
          "internalType": "uint256",
          "name": "requestId",
          "type": "uint256"
        }
      ],
      "name": "InvalidRequestId",
      "type": "error"
    },
    {
      "inputs": [],
      "name": "NoHandleFoundForRequestID",
      "type": "error"
    },
    {
      "inputs": [
        {
          "internalType": "uint256",
          "name": "batchId",
          "type": "uint256"
        },
        {
          "internalType": "address",
          "name": "user",
          "type": "address"
        }
      ],
      "name": "NothingToClaim",
      "type": "error"
    },
    {
      "inputs": [
        {
          "internalType": "address",
          "name": "owner",
          "type": "address"
        }
      ],
      "name": "OwnableInvalidOwner",
      "type": "error"
    },
    {
      "inputs": [
        {
          "internalType": "address",
          "name": "account",
          "type": "address"
        }
      ],
      "name": "OwnableUnauthorizedAccount",
      "type": "error"
    },
    {
      "inputs": [],
      "name": "ReentrancyGuardReentrantCall",
      "type": "error"
    },
    {
      "inputs": [
        {
          "internalType": "address",
          "name": "token",
          "type": "address"
        }
      ],
      "name": "SafeERC20FailedOperation",
      "type": "error"
    },
    {
      "inputs": [],
      "name": "SameVault",
      "type": "error"
    },
    {
      "inputs": [
        {
          "internalType": "uint256",
          "name": "vaultId",
          "type": "uint256"
        }
      ],
      "name": "VaultDisabled",
      "type": "error"
    },
    {
      "inputs": [
        {
          "internalType": "uint256",
          "name": "vaultId",
          "type": "uint256"
        }
      ],
      "name": "VaultDoesNotExist",
      "type": "error"
    },
    {
      "anonymous": false,
      "inputs": [
        {
          "indexed": true,
          "internalType": "uint256",
          "name": "batchId",
          "type": "uint256"
        },
        {
          "indexed": true,
          "internalType": "uint256",
          "name": "vaultId",
          "type": "uint256"
        }
      ],
      "name": "BatchCancelled",
      "type": "event"
    },
    {
      "anonymous": false,
      "inputs": [
        {
          "indexed": true,
          "internalType": "uint256",
          "name": "batchId",
          "type": "uint256"
        },
        {
          "indexed": true,
          "internalType": "uint256",
          "name": "vaultId",
          "type": "uint256"
        },
        {
          "indexed": false,
          "internalType": "uint256",
          "name": "requestId",
          "type": "uint256"
        }
      ],
      "name": "BatchDispatched",
      "type": "event"
    },
    {
      "anonymous": false,
      "inputs": [
        {
          "indexed": true,
          "internalType": "uint256",
          "name": "batchId",
          "type": "uint256"
        },
        {
          "indexed": true,
          "internalType": "uint256",
          "name": "vaultId",
          "type": "uint256"
        }
      ],
      "name": "BatchOpened",
      "type": "event"
    },
    {
      "anonymous": false,
      "inputs": [
        {
          "indexed": true,
          "internalType": "uint256",
          "name": "batchId",
          "type": "uint256"
        },
        {
          "indexed": true,
          "internalType": "uint256",
          "name": "vaultId",
          "type": "uint256"
        },
        {
          "indexed": false,
          "internalType": "uint64",
          "name": "totalAssets",
          "type": "uint64"
        },
        {
          "indexed": false,
          "internalType": "uint64",
          "name": "totalShares",
          "type": "uint64"
        }
      ],
      "name": "BatchSettled",
      "type": "event"
    },
    {
      "anonymous": false,
      "inputs": [
        {
          "indexed": true,
          "internalType": "uint256",
          "name": "batchId",
          "type": "uint256"
        },
        {
          "indexed": true,
          "internalType": "address",
          "name": "user",
          "type": "address"
        }
      ],
      "name": "Claimed",
      "type": "event"
    },
    {
      "anonymous": false,
      "inputs": [
        {
          "indexed": true,
          "internalType": "uint256",
          "name": "requestID",
          "type": "uint256"
        }
      ],
      "name": "DecryptionFulfilled",
      "type": "event"
    },
    {
      "anonymous": false,
      "inputs": [
        {
          "indexed": true,
          "internalType": "uint256",
          "name": "batchId",
          "type": "uint256"
        },
        {
          "indexed": true,
          "internalType": "address",
          "name": "user",
          "type": "address"
        }
      ],
      "name": "Joined",
      "type": "event"
    },
    {
      "anonymous": false,
      "inputs": [
        {
          "indexed": true,
          "internalType": "address",
          "name": "user",
          "type": "address"
        },
        {
          "indexed": true,
          "internalType": "uint256",
          "name": "fromVaultId",
          "type": "uint256"
        },
        {
          "indexed": true,
          "internalType": "uint256",
          "name": "toVaultId",
          "type": "uint256"
        },
        {
          "indexed": false,
          "internalType": "uint256",
          "name": "toBatchId",
          "type": "uint256"
        }
      ],
      "name": "MigrationRequested",
      "type": "event"
    },
    {
      "anonymous": false,
      "inputs": [
        {
          "indexed": false,
          "internalType": "uint64",
          "name": "newMinBatchAge",
          "type": "uint64"
        }
      ],
      "name": "MinBatchAgeUpdated",
      "type": "event"
    },
    {
      "anonymous": false,
      "inputs": [
        {
          "indexed": true,
          "internalType": "address",
          "name": "previousOwner",
          "type": "address"
        },
        {
          "indexed": true,
          "internalType": "address",
          "name": "newOwner",
          "type": "address"
        }
      ],
      "name": "OwnershipTransferStarted",
      "type": "event"
    },
    {
      "anonymous": false,
      "inputs": [
        {
          "indexed": true,
          "internalType": "address",
          "name": "previousOwner",
          "type": "address"
        },
        {
          "indexed": true,
          "internalType": "address",
          "name": "newOwner",
          "type": "address"
        }
      ],
      "name": "OwnershipTransferred",
      "type": "event"
    },
    {
      "anonymous": false,
      "inputs": [
        {
          "indexed": true,
          "internalType": "uint256",
          "name": "batchId",
          "type": "uint256"
        },
        {
          "indexed": true,
          "internalType": "address",
          "name": "user",
          "type": "address"
        }
      ],
      "name": "Quit",
      "type": "event"
    },
    {
      "anonymous": false,
      "inputs": [
        {
          "indexed": true,
          "internalType": "uint256",
          "name": "vaultId",
          "type": "uint256"
        },
        {
          "indexed": false,
          "internalType": "bool",
          "name": "enabled",
          "type": "bool"
        }
      ],
      "name": "VaultEnabled",
      "type": "event"
    },
    {
      "anonymous": false,
      "inputs": [
        {
          "indexed": true,
          "internalType": "uint256",
          "name": "vaultId",
          "type": "uint256"
        },
        {
          "indexed": false,
          "internalType": "address",
          "name": "vault",
          "type": "address"
        },
        {
          "indexed": false,
          "internalType": "address",
          "name": "depositToken",
          "type": "address"
        },
        {
          "indexed": false,
          "internalType": "address",
          "name": "shareToken",
          "type": "address"
        }
      ],
      "name": "VaultRegistered",
      "type": "event"
    },
    {
      "inputs": [],
      "name": "acceptOwnership",
      "outputs": [],
      "stateMutability": "nonpayable",
      "type": "function"
    },
    {
      "inputs": [],
      "name": "batchCount",
      "outputs": [
        {
          "internalType": "uint256",
          "name": "",
          "type": "uint256"
        }
      ],
      "stateMutability": "view",
      "type": "function"
    },
    {
      "inputs": [
        {
          "internalType": "uint256",
          "name": "batchId",
          "type": "uint256"
        }
      ],
      "name": "claim",
      "outputs": [],
      "stateMutability": "nonpayable",
      "type": "function"
    },
    {
      "inputs": [
        {
          "internalType": "uint256",
          "name": "vaultId",
          "type": "uint256"
        }
      ],
      "name": "currentAnonymitySet",
      "outputs": [
        {
          "internalType": "uint32",
          "name": "",
          "type": "uint32"
        }
      ],
      "stateMutability": "view",
      "type": "function"
    },
    {
      "inputs": [
        {
          "internalType": "uint256",
          "name": "batchId",
          "type": "uint256"
        },
        {
          "internalType": "address",
          "name": "user",
          "type": "address"
        }
      ],
      "name": "depositOf",
      "outputs": [
        {
          "internalType": "euint64",
          "name": "",
          "type": "bytes32"
        }
      ],
      "stateMutability": "view",
      "type": "function"
    },
    {
      "inputs": [
        {
          "internalType": "uint256",
          "name": "batchId",
          "type": "uint256"
        }
      ],
      "name": "dispatchBatch",
      "outputs": [],
      "stateMutability": "nonpayable",
      "type": "function"
    },
    {
      "inputs": [
        {
          "internalType": "uint256",
          "name": "batchId",
          "type": "uint256"
        }
      ],
      "name": "getBatch",
      "outputs": [
        {
          "internalType": "uint256",
          "name": "vaultId",
          "type": "uint256"
        },
        {
          "internalType": "enum ConfidentialVaultRouter.BatchStatus",
          "name": "status",
          "type": "uint8"
        },
        {
          "internalType": "uint64",
          "name": "createdAt",
          "type": "uint64"
        },
        {
          "internalType": "uint64",
          "name": "readyAt",
          "type": "uint64"
        },
        {
          "internalType": "uint32",
          "name": "depositorCount",
          "type": "uint32"
        },
        {
          "internalType": "uint64",
          "name": "clearTotalAssets",
          "type": "uint64"
        },
        {
          "internalType": "uint64",
          "name": "clearTotalShares",
          "type": "uint64"
        }
      ],
      "stateMutability": "view",
      "type": "function"
    },
    {
      "inputs": [
        {
          "internalType": "uint256",
          "name": "batchId",
          "type": "uint256"
        },
        {
          "internalType": "address",
          "name": "user",
          "type": "address"
        }
      ],
      "name": "hasClaimed",
      "outputs": [
        {
          "internalType": "bool",
          "name": "",
          "type": "bool"
        }
      ],
      "stateMutability": "view",
      "type": "function"
    },
    {
      "inputs": [
        {
          "internalType": "uint256",
          "name": "vaultId",
          "type": "uint256"
        },
        {
          "internalType": "externalEuint64",
          "name": "encryptedAmount",
          "type": "bytes32"
        },
        {
          "internalType": "bytes",
          "name": "inputProof",
          "type": "bytes"
        }
      ],
      "name": "join",
      "outputs": [
        {
          "internalType": "uint256",
          "name": "batchId",
          "type": "uint256"
        }
      ],
      "stateMutability": "nonpayable",
      "type": "function"
    },
    {
      "inputs": [
        {
          "internalType": "uint256",
          "name": "fromVaultId",
          "type": "uint256"
        },
        {
          "internalType": "uint256",
          "name": "toVaultId",
          "type": "uint256"
        },
        {
          "internalType": "externalEuint64",
          "name": "encryptedAmount",
          "type": "bytes32"
        },
        {
          "internalType": "bytes",
          "name": "inputProof",
          "type": "bytes"
        }
      ],
      "name": "migrate",
      "outputs": [
        {
          "internalType": "uint256",
          "name": "toBatchId",
          "type": "uint256"
        }
      ],
      "stateMutability": "nonpayable",
      "type": "function"
    },
    {
      "inputs": [],
      "name": "minBatchAge",
      "outputs": [
        {
          "internalType": "uint64",
          "name": "",
          "type": "uint64"
        }
      ],
      "stateMutability": "view",
      "type": "function"
    },
    {
      "inputs": [
        {
          "internalType": "uint256",
          "name": "vaultId",
          "type": "uint256"
        }
      ],
      "name": "openBatchOf",
      "outputs": [
        {
          "internalType": "uint256",
          "name": "batchId",
          "type": "uint256"
        }
      ],
      "stateMutability": "view",
      "type": "function"
    },
    {
      "inputs": [],
      "name": "owner",
      "outputs": [
        {
          "internalType": "address",
          "name": "",
          "type": "address"
        }
      ],
      "stateMutability": "view",
      "type": "function"
    },
    {
      "inputs": [],
      "name": "pendingOwner",
      "outputs": [
        {
          "internalType": "address",
          "name": "",
          "type": "address"
        }
      ],
      "stateMutability": "view",
      "type": "function"
    },
    {
      "inputs": [],
      "name": "protocolId",
      "outputs": [
        {
          "internalType": "uint256",
          "name": "",
          "type": "uint256"
        }
      ],
      "stateMutability": "pure",
      "type": "function"
    },
    {
      "inputs": [
        {
          "internalType": "uint256",
          "name": "batchId",
          "type": "uint256"
        }
      ],
      "name": "quit",
      "outputs": [],
      "stateMutability": "nonpayable",
      "type": "function"
    },
    {
      "inputs": [
        {
          "internalType": "uint256",
          "name": "batchId",
          "type": "uint256"
        }
      ],
      "name": "reclaim",
      "outputs": [],
      "stateMutability": "nonpayable",
      "type": "function"
    },
    {
      "inputs": [
        {
          "internalType": "contract IERC4626Minimal",
          "name": "vault",
          "type": "address"
        },
        {
          "internalType": "contract IConfidentialToken",
          "name": "depositToken",
          "type": "address"
        },
        {
          "internalType": "contract IConfidentialToken",
          "name": "shareToken",
          "type": "address"
        }
      ],
      "name": "registerVault",
      "outputs": [
        {
          "internalType": "uint256",
          "name": "vaultId",
          "type": "uint256"
        }
      ],
      "stateMutability": "nonpayable",
      "type": "function"
    },
    {
      "inputs": [],
      "name": "renounceOwnership",
      "outputs": [],
      "stateMutability": "nonpayable",
      "type": "function"
    },
    {
      "inputs": [
        {
          "internalType": "uint64",
          "name": "newMinBatchAge",
          "type": "uint64"
        }
      ],
      "name": "setMinBatchAge",
      "outputs": [],
      "stateMutability": "nonpayable",
      "type": "function"
    },
    {
      "inputs": [
        {
          "internalType": "uint256",
          "name": "vaultId",
          "type": "uint256"
        },
        {
          "internalType": "bool",
          "name": "enabled",
          "type": "bool"
        }
      ],
      "name": "setVaultEnabled",
      "outputs": [],
      "stateMutability": "nonpayable",
      "type": "function"
    },
    {
      "inputs": [
        {
          "internalType": "uint256",
          "name": "requestId",
          "type": "uint256"
        },
        {
          "internalType": "bytes",
          "name": "cleartexts",
          "type": "bytes"
        },
        {
          "internalType": "bytes",
          "name": "decryptionProof",
          "type": "bytes"
        }
      ],
      "name": "settleBatchCallback",
      "outputs": [],
      "stateMutability": "nonpayable",
      "type": "function"
    },
    {
      "inputs": [
        {
          "internalType": "address",
          "name": "newOwner",
          "type": "address"
        }
      ],
      "name": "transferOwnership",
      "outputs": [],
      "stateMutability": "nonpayable",
      "type": "function"
    },
    {
      "inputs": [],
      "name": "vaultCount",
      "outputs": [
        {
          "internalType": "uint256",
          "name": "",
          "type": "uint256"
        }
      ],
      "stateMutability": "view",
      "type": "function"
    },
    {
      "inputs": [
        {
          "internalType": "uint256",
          "name": "vaultId",
          "type": "uint256"
        }
      ],
      "name": "vaults",
      "outputs": [
        {
          "internalType": "contract IERC4626Minimal",
          "name": "vault",
          "type": "address"
        },
        {
          "internalType": "contract IConfidentialToken",
          "name": "depositToken",
          "type": "address"
        },
        {
          "internalType": "contract IConfidentialToken",
          "name": "shareToken",
          "type": "address"
        },
        {
          "internalType": "bool",
          "name": "enabled",
          "type": "bool"
        },
        {
          "internalType": "bool",
          "name": "exists",
          "type": "bool"
        }
      ],
      "stateMutability": "view",
      "type": "function"
    }
  ],
  "transactionHash": "0xb20fc9d477380b5c2fe6bca16361ae00dd85b8b9db6e83c4b51e90f03d01db16",
  "args": [
    60
  ],
  "numDeployments": 1,
  "solcInputHash": "993374114eb7a2e0bb2a9b8186ddc8a4",
  "bytecode": "0x608060405234801561000f575f5ffd5b5060405161321f38038061321f83398101604081905261002e916102cd565b336101a96100cd604080516080810182525f808252602082018190529181018290526060810191909152506040805160808101825273687820221192c5b662b25367f70076a37bc79b6c815273848b0066793bcc60346da1f49049357399b8d595602082015273a02cda4ca3a71d7c46997716f4283aa851c2881291810191909152731364cbbf2cdf5032c47d8226a6f6fbd2afcdacac606082015290565b80517f9e7b61f58c47dc699ac88507c4f5bb9f121c03808c5676a8078fe583e464970080546001600160a01b03199081166001600160a01b039384161790915560208301517f9e7b61f58c47dc699ac88507c4f5bb9f121c03808c5676a8078fe583e46497018054831691841691909117905560408301517f9e7b61f58c47dc699ac88507c4f5bb9f121c03808c5676a8078fe583e46497028054831691841691909117905560608301517f9e7b61f58c47dc699ac88507c4f5bb9f121c03808c5676a8078fe583e46497038054909216921691909117905550565b6001600160a01b0381166101d657604051631e4fbdf760e01b81525f600482015260240160405180910390fd5b6101df8161026a565b5060017f9b779b17422d0df92223018b32b4d1fa46e071723d6817e2486d003becc55f005560018054600160a01b600160e01b031916600160a01b6001600160401b038416908102919091179091556040519081527f04ea99a89b2a696d3f1f98722b4929c1b6c3e1895348c7e04d8c72f6f5ab90aa9060200160405180910390a1506102fa565b50565b600180546001600160a01b0319169055610267815f80546001600160a01b038381166001600160a01b0319831681178455604051919092169283917f8be0079c531659141344cd1fd0a4f28419497f9722a3daafe3b4186f6b6457e09190a35050565b5f602082840312156102dd575f5ffd5b81516001600160401b03811681146102f3575f5ffd5b9392505050565b612f18806103075f395ff3fe608060405234801561000f575f5ffd5b506004361061016d575f3560e01c806379ba5097116100d9578063bf1d594911610093578063dfce183a1161006e578063dfce183a146103dd578063e30c397814610405578063f2fde38b14610416578063ffe5ff4e14610429575f5ffd5b8063bf1d5949146103a3578063c0166019146103c2578063da1f12ab146103d5575f5ffd5b806379ba509714610287578063873f6f9e1461028f5780638c64ea4a146102d75780638da5cb5b1461036357806396c6187b14610387578063a7c6a1001461039a575f5ffd5b8063596739e01161012a578063596739e01461020d5780635ac44282146102205780636544533914610246578063715018a6146102595780637178a55914610261578063784be6ad14610274575f5ffd5b806306f130561461017157806313ab3b2e1461018d5780632dabbeed146101bf578063344cbc68146101d45780633470a719146101e7578063379607f5146101fa575b5f5ffd5b61017a60055481565b6040519081526020015b60405180910390f35b6001546101a790600160a01b90046001600160401b031681565b6040516001600160401b039091168152602001610184565b6101d26101cd366004612891565b61043c565b005b6101d26101e2366004612891565b61061d565b61017a6101f53660046128bc565b6107ed565b6101d2610208366004612891565b610816565b61017a61021b36600461292e565b610a2b565b61023361022e366004612891565b610e78565b604051610184979695949392919061299d565b6101d2610254366004612a04565b610f05565b6101d2610fb1565b6101d261026f366004612ac4565b610fc4565b6101d2610282366004612b43565b611415565b6101d261147e565b6102c761029d3660046128bc565b5f9182526009602090815260408084206001600160a01b0393909316845291905290205460ff1690565b6040519015158152602001610184565b6103286102e5366004612891565b60036020525f90815260409020805460018201546002909201546001600160a01b039182169282169181169060ff600160a01b8204811691600160a81b90041685565b604080516001600160a01b0396871681529486166020860152929094169183019190915215156060820152901515608082015260a001610184565b5f546001600160a01b03165b6040516001600160a01b039091168152602001610184565b61017a610395366004612b5e565b6114bf565b61017a60025481565b61017a6103b1366004612891565b60046020525f908152604090205481565b61017a6103d0366004612ba6565b61160e565b61271161017a565b6103f06103eb366004612891565b6119c4565b60405163ffffffff9091168152602001610184565b6001546001600160a01b031661036f565b6101d2610424366004612bf4565b611a05565b6101d2610437366004612891565b611a75565b610444611c7d565b5f8181526006602052604090206003600182015460ff16600381111561046c5761046c612989565b1461049257604051636c126d2560e11b8152600481018390526024015b60405180910390fd5b5f82815260096020908152604080832033845290915290205460ff16156104d5576040516302a4851560e61b815260048101839052336024820152604401610489565b5f828152600760209081526040808320338452909152902054806105155760405163b361b5fb60e01b815260048101849052336024820152604401610489565b5f8381526009602090815260408083203384528252808320805460ff191660019081179091558554845260039092529091209081015461055f9083906001600160a01b0316611c98565b506001810154604051632df5f6bf60e11b8152336004820152602481018490526001600160a01b0390911690635bebed7e906044016020604051808303815f875af11580156105b0573d5f5f3e3d5ffd5b505050506040513d601f19601f820116820180604052508101906105d49190612c0f565b50604051339085907f6aa3eac93d079e5e100b1029be716caa33586c96aa4baac390669fb5c2a21212905f90a350505061061a60015f516020612ec35f395f51905f5255565b50565b610625611c7d565b5f81815260066020526040812090600182015460ff16600381111561064c5761064c612989565b1461066d576040516309d71a1760e21b815260048101839052602401610489565b5f828152600760209081526040808320338452909152902054806106ad5760405163b361b5fb60e01b815260048101849052336024820152604401610489565b81545f90815260036020526040902060028301546106cb9083611caa565b600284018190556106db90611cdf565b505f6106e65f611cee565b5f8681526007602090815260408083203384529091529020819055905061070c81611cdf565b506107178133611d03565b5060018201546107319084906001600160a01b0316611c98565b506001820154604051632df5f6bf60e11b8152336004820152602481018590526001600160a01b0390911690635bebed7e906044016020604051808303815f875af1158015610782573d5f5f3e3d5ffd5b505050506040513d601f19601f820116820180604052508101906107a69190612c0f565b50604051339086907f326e88c8df88541b5b94bff9050e224810ac42eba10dc95f02b1246d640fe671905f90a35050505061061a60015f516020612ec35f395f51905f5255565b5f8281526007602090815260408083206001600160a01b03851684529091529020545b92915050565b61081e611c7d565b5f8181526006602052604090206002600182015460ff16600381111561084657610846612989565b14610867576040516328ce38bd60e01b815260048101839052602401610489565b5f82815260096020908152604080832033845290915290205460ff16156108aa576040516302a4851560e61b815260048101839052336024820152604401610489565b5f828152600760209081526040808320338452909152902054806108ea5760405163b361b5fb60e01b815260048101849052336024820152604401610489565b5f8381526009602090815260408083203384528252808320805460ff1916600117905584548352600390915281206004840154909190610953906109409085906001600160401b03600160401b90910416611d0e565b60048601546001600160401b0316611d35565b600283015490915061096f9082906001600160a01b0316611c98565b506002820154604051632df5f6bf60e11b8152336004820152602481018390526001600160a01b0390911690635bebed7e906044016020604051808303815f875af11580156109c0573d5f5f3e3d5ffd5b505050506040513d601f19601f820116820180604052508101906109e49190612c0f565b50604051339086907f6aa3eac93d079e5e100b1029be716caa33586c96aa4baac390669fb5c2a21212905f90a35050505061061a60015f516020612ec35f395f51905f5255565b5f610a34611c7d565b848603610a545760405163f4d1987f60e01b815260040160405180910390fd5b5f85815260036020526040808220888352912060020154600160a81b900460ff16610a955760405163148eeced60e31b815260048101889052602401610489565b6002810154600160a81b900460ff16610ac45760405163148eeced60e31b815260048101879052602401610489565b6002810154600160a01b900460ff16610af35760405163af12cc4760e01b815260048101879052602401610489565b5f610b338686868080601f0160208091040260200160405190810160405280939291908181526020018383808284375f92019190915250611d5a92505050565b6001830154909150610b4f9082906001600160a01b0316611c98565b50600182015460405163344ff10160e01b81523060048201525f916001600160a01b03169063344ff10190602401602060405180830381865afa158015610b98573d5f5f3e3d5ffd5b505050506040513d601f19601f82011682018060405250810190610bbc9190612c0f565b600184015460405163eb3155b560e01b8152336004820152306024820152604481018590529192506001600160a01b03169063eb3155b5906064016020604051808303815f875af1158015610c13573d5f5f3e3d5ffd5b505050506040513d601f19601f82011682018060405250810190610c379190612c0f565b50600183015460405163344ff10160e01b81523060048201525f916001600160a01b03169063344ff10190602401602060405180830381865afa158015610c80573d5f5f3e3d5ffd5b505050506040513d601f19601f82011682018060405250810190610ca49190612c0f565b90505f610cb18284611caa565b9050610cbc8a611d67565b5f81815260066020908152604080832060078352818420338552909252822054929850919081610cec5783610cf6565b610cf68285611e08565b5f8a815260076020908152604080832033845290915290208190556002840154909150610d235783610d31565b610d31836002015485611e08565b6002840155610d3f81611cdf565b50610d4a8133611d03565b50610d588360020154611cdf565b505f89815260086020908152604080832033845290915290205460ff16610de0575f8981526008602090815260408083203384529091529020805460ff19166001908117909155600484018054601090610dc190849063ffffffff600160801b90910416612c3a565b92506101000a81548163ffffffff021916908363ffffffff1602179055505b8c8e336001600160a01b03167fdc77a44f02facd938bd1ba197caabc38e05bc0ef0b1ded72f66d80f161b029b38c604051610e1d91815260200190565b60405180910390a460405133908a907fc0081eeafa0d002abcd7d58d84b6e688d1526b9c3d915a282212ba08c49a17a7905f90a35050505050505050610e6f60015f516020612ec35f395f51905f5255565b95945050505050565b5f818152600660205260408120805460018083015490548493849384938493849384939092909160ff8216916001600160401b03610100909104811691610ec891600160a01b9091041682612c56565b60049490940154929c919b509950919750600160801b810463ffffffff1696506001600160401b038082169650600160401b909104169350915050565b610f0d611e36565b5f82815260036020526040902060020154600160a81b900460ff16610f485760405163148eeced60e31b815260048101839052602401610489565b5f82815260036020526040908190206002018054831515600160a01b0260ff60a01b199091161790555182907f8481c1362d0cc7bc663c1159fea5d211dd6c5dc0586381bddb6df8a0ec4f52ad90610fa590841515815260200190565b60405180910390a25050565b610fb9611e36565b610fc25f611e62565b565b610fcc611c7d565b610fd7838383611e7b565b5f838152600a602052604081205490819003611009576040516364b4f07960e11b815260048101859052602401610489565b5f81815260066020526040902060018082015460ff16600381111561103057611030612989565b1461105157604051631aac8f3d60e31b815260048101839052602401610489565b5f848060200190518101906110669190612c75565b5f878152600a602052604081208190559091506001600160401b03821690036110cc5760018201805460ff19166003179055815460405184907f6f51b67aeef882f382adb512bd5a57ed8782c43cfa1a76ba7f32baa6887791d5905f90a35050506113fa565b81545f908152600360205260409081902060018101549151630f5c3c5f60e41b8152306004820181905260248201526001600160401b038416604482015290916001600160a01b03169063f5c3c5f0906064015f604051808303815f87803b158015611136575f5ffd5b505af1158015611148573d5f5f3e3d5ffd5b50508254604080516338d52e0f60e01b815290515f94506001600160a01b0390921692506338d52e0f9160048083019260209291908290030181865afa158015611194573d5f5f3e3d5ffd5b505050506040513d601f19601f820116820180604052508101906111b89190612c90565b82549091506111dd906001600160a01b0380841691166001600160401b038616611ee4565b8154604051636e553f6560e01b81526001600160401b03851660048201523060248201525f916001600160a01b031690636e553f65906044016020604051808303815f875af1158015611232573d5f5f3e3d5ffd5b505050506040513d601f19601f820116820180604052508101906112569190612c0f565b90505f61126282611f5e565b90505f846002015f9054906101000a90046001600160a01b03166001600160a01b0316636f307dc36040518163ffffffff1660e01b8152600401602060405180830381865afa1580156112b7573d5f5f3e3d5ffd5b505050506040513d601f19601f820116820180604052508101906112db9190612c90565b6002860154909150611303906001600160a01b0380841691166001600160401b038516611ee4565b6002850154604051635f9bb63d60e11b81523060048201526001600160401b03841660248201526001600160a01b039091169063bf376c7a906044015f604051808303815f87803b158015611356575f5ffd5b505af1158015611368573d5f5f3e3d5ffd5b505050506004870180546001600160401b038881166fffffffffffffffffffffffffffffffff199092168217600160401b9186169182021790925560018901805460ff191660021790558854604080519283526020830193909352918a917f29ee2b79ca4a4b4dda7c82b8c63db0e62dea24f1bbdd860af0b27ad47fb14402910160405180910390a350505050505050505b61141060015f516020612ec35f395f51905f5255565b505050565b61141d611e36565b6001805467ffffffffffffffff60a01b1916600160a01b6001600160401b038416908102919091179091556040519081527f04ea99a89b2a696d3f1f98722b4929c1b6c3e1895348c7e04d8c72f6f5ab90aa9060200160405180910390a150565b60015433906001600160a01b031681146114b65760405163118cdaa760e01b81526001600160a01b0382166004820152602401610489565b61061a81611e62565b5f6114c8611e36565b60025f81546114d690612cab565b91829055506040805160a0810182526001600160a01b03878116808352878216602080850182815289851686880181815260016060808a0182815260808b018381525f8e8152600389528d90209b518c54908c166001600160a01b0319918216178d559651938c018054948c169490971693909317909555915160029099018054945191511515600160a81b0260ff60a81b19921515600160a01b026001600160a81b03199096169a9099169990991793909317929092169590951790955585519283528201529283015291925082917f16cb568e5483f7c0af41934c00f6150cb81b17e6be5dc88c81ea5ecdc6b8bb9e910160405180910390a26040516001815281907f8481c1362d0cc7bc663c1159fea5d211dd6c5dc0586381bddb6df8a0ec4f52ad9060200160405180910390a29392505050565b5f611617611c7d565b5f8581526003602052604090206002810154600160a81b900460ff166116535760405163148eeced60e31b815260048101879052602401610489565b6002810154600160a01b900460ff166116825760405163af12cc4760e01b815260048101879052602401610489565b61168b86611d67565b5f8181526006602090815260408083208151601f89018490048402810184019092528782529395506116d99189919089908990819084018382808284375f92019190915250611d5a92505050565b60018401549091506116f59082906001600160a01b0316611c98565b50600183015460405163344ff10160e01b81523060048201525f916001600160a01b03169063344ff10190602401602060405180830381865afa15801561173e573d5f5f3e3d5ffd5b505050506040513d601f19601f820116820180604052508101906117629190612c0f565b600185015460405163eb3155b560e01b8152336004820152306024820152604481018590529192506001600160a01b03169063eb3155b5906064016020604051808303815f875af11580156117b9573d5f5f3e3d5ffd5b505050506040513d601f19601f820116820180604052508101906117dd9190612c0f565b50600184015460405163344ff10160e01b81523060048201525f916001600160a01b03169063344ff10190602401602060405180830381865afa158015611826573d5f5f3e3d5ffd5b505050506040513d601f19601f8201168201806040525081019061184a9190612c0f565b90505f6118578284611caa565b5f8881526007602090815260408083203384529091528120549192508161187e5782611888565b6118888284611e08565b5f8a8152600760209081526040808320338452909152902081905560028801549091506118b557826118c3565b6118c3876002015484611e08565b60028801556118d181611cdf565b506118dc8133611d03565b506118ea8760020154611cdf565b505f89815260086020908152604080832033845290915290205460ff16611972575f8981526008602090815260408083203384529091529020805460ff1916600190811790915560048801805460109061195390849063ffffffff600160801b90910416612c3a565b92506101000a81548163ffffffff021916908363ffffffff1602179055505b60405133908a907fc0081eeafa0d002abcd7d58d84b6e688d1526b9c3d915a282212ba08c49a17a7905f90a350505050505050506119bc60015f516020612ec35f395f51905f5255565b949350505050565b5f818152600460205260408120548082036119e157505f92915050565b5f90815260066020526040902060040154600160801b900463ffffffff1692915050565b611a0d611e36565b600180546001600160a01b0383166001600160a01b03199091168117909155611a3d5f546001600160a01b031690565b6001600160a01b03167f38d16b8cac22d99fc7c124b9cd0de2d3fa1faef420bfe791d8c362d765e2270060405160405180910390a350565b611a7d611c7d565b5f81815260066020526040812090600182015460ff166003811115611aa457611aa4612989565b14611ac557604051631aac8f3d60e31b815260048101839052602401610489565b60018054908201545f91611af2916001600160401b03600160a01b90920482169161010090910416612c56565b9050806001600160401b0316421015611b305760405163451a0a1d60e01b8152600481018490526001600160401b0382166024820152604401610489565b6001828101805460ff1916909117905581545f90815260046020526040902054839003611b685781545f908152600460205260408120555b6002820154611bb35760018201805460ff19166003179055815460405184907f6f51b67aeef882f382adb512bd5a57ed8782c43cfa1a76ba7f32baa6887791d5905f90a35050611c67565b6040805160018082528183019092525f91602080830190803683375050506002840154909150815f81518110611beb57611beb612cc3565b60209081029190910101525f611c0882637178a55960e01b611fae565b600385018190555f818152600a602052604090819020879055855490519192509086907f62096bb96dce1f3cfb0a54170d7e6f68228184ca9e0a95e7c86afe777a20b90c90611c5a9085815260200190565b60405180910390a3505050505b61061a60015f516020612ec35f395f51905f5255565b611c85611fba565b60025f516020612ec35f395f51905f5255565b5f611ca38383611fe9565b5090919050565b5f82611cbc57611cb95f611cee565b92505b81611ccd57611cca5f611cee565b91505b611cd883835f61205d565b9392505050565b5f611cea823061210a565b5090565b5f610810826001600160401b03166005612150565b5f611ca3838361210a565b5f82611d2057611d1d5f611cee565b92505b611cd8836001600160401b03841660016121df565b5f82611d4757611d445f611cee565b92505b611cd8836001600160401b038416612242565b5f611cd8838360056122d7565b5f8181526004602052604081205490819003611e035760055f8154611d8b90612cab565b91829055505f81815260066020908152604080832086815560018101805468ffffffffffffffffff1916610100426001600160401b03160217905586845260049092528083208490555192935091849184917f217ff5db260372f7ab32608612dc3d218db8f3644666e2881c29c1e771e253bf9190a3505b919050565b5f82611e1a57611e175f611cee565b92505b81611e2b57611e285f611cee565b91505b611cd883835f6123d1565b5f546001600160a01b03163314610fc25760405163118cdaa760e01b8152336004820152602401610489565b600180546001600160a01b031916905561061a81612434565b5f611e8584612483565b90505f611e93828585612554565b905080611eb35760405163cf6c44e960e01b815260040160405180910390fd5b60405185907f1af0453083661051f6e56e5c070792320652e612154bf9af8637bb1e7655b99d905f90a25050505050565b611ef08383835f61262d565b61141057611f0183835f600161262d565b611f2957604051635274afe760e01b81526001600160a01b0384166004820152602401610489565b611f36838383600161262d565b61141057604051635274afe760e01b81526001600160a01b0384166004820152602401610489565b5f6001600160401b03821115611cea5760405162461bcd60e51b8152602060048201526015602482015274185b5bdd5b9d08195e18d959591cc81d5a5b9d0d8d605a1b6044820152606401610489565b5f611cd883835f61268f565b5f516020612ec35f395f51905f5254600203610fc257604051633ee5aeb560e01b815260040160405180910390fd5b5f516020612ea35f395f51905f528054604051630f8e573b60e21b8152600481018590526001600160a01b03848116602483015290911690633e395cec906044015b5f604051808303815f87803b158015612042575f5ffd5b505af1158015612054573d5f5f3e3d5ffd5b50505050505050565b5f5f82156120705750600160f81b612073565b505f5b5f516020612e835f395f51905f52546040516303056db360e31b81525f516020612ea35f395f51905f52916001600160a01b03169063182b6d98906120c090899089908790600401612cd7565b6020604051808303815f875af11580156120dc573d5f5f3e3d5ffd5b505050506040513d601f19601f820116820180604052508101906121009190612c0f565b9695505050505050565b5f516020612ea35f395f51905f528054604051635ca4b5b160e11b8152600481018590526001600160a01b0384811660248301529091169063b9496b629060440161202b565b5f516020612e835f395f51905f5254604051639cd07acb60e01b81525f915f516020612ea35f395f51905f52916001600160a01b0390911690639cd07acb9061219f9087908790600401612d0b565b6020604051808303815f875af11580156121bb573d5f5f3e3d5ffd5b505050506040513d601f19601f820116820180604052508101906119bc9190612c0f565b5f5f82156121f25750600160f81b6121f5565b505f5b5f516020612e835f395f51905f5254604051630afe14ad60e31b81525f516020612ea35f395f51905f52916001600160a01b0316906357f0a568906120c090899089908790600401612cd7565b5f516020612e835f395f51905f5254604051635a53accb60e01b81525f91600160f81b915f516020612ea35f395f51905f52916001600160a01b031690635a53accb9061229790889088908790600401612cd7565b6020604051808303815f875af11580156122b3573d5f5f3e3d5ffd5b505050506040513d601f19601f82011682018060405250810190610e6f9190612c0f565b5f516020612e835f395f51905f525460405163196d0b9b60e01b81525f915f516020612ea35f395f51905f52916001600160a01b039091169063196d0b9b9061232a908890339089908990600401612d4d565b6020604051808303815f875af1158015612346573d5f5f3e3d5ffd5b505050506040513d601f19601f8201168201806040525081019061236a9190612c0f565b8154604051630f8e573b60e21b8152600481018390523360248201529193506001600160a01b031690633e395cec906044015f604051808303815f87803b1580156123b3575f5ffd5b505af11580156123c5573d5f5f3e3d5ffd5b50505050509392505050565b5f5f82156123e45750600160f81b6123e7565b505f5b5f516020612e835f395f51905f525460405163022f65e760e31b81525f516020612ea35f395f51905f52916001600160a01b03169063117b2f38906120c090899089908790600401612cd7565b5f80546001600160a01b038381166001600160a01b0319831681178455604051919092169283917f8be0079c531659141344cd1fd0a4f28419497f9722a3daafe3b4186f6b6457e09190a35050565b5f8181527f878245876662ba28a480c5ea71726db859fb50222b0a3d7cbbc21cfa336faf0160205260408120546060917f878245876662ba28a480c5ea71726db859fb50222b0a3d7cbbc21cfa336faf009190036124f45760405163d66ca67560e01b815260040160405180910390fd5b5f8381526001820160209081526040918290208054835181840281018401909452808452909183018282801561254757602002820191905f5260205f20905b815481526020019060010190808311612533575b5050505050915050919050565b5f5f835160206125649190612d85565b61256f906020612d85565b90505f8482604051602001612585929190612d98565b60405160208183030381529060405290505f6125ab5f516020612ea35f395f51905f5290565b60038101546040516378542ead60e01b81529192506001600160a01b0316906378542ead906125e2908a9086908a90600401612dec565b6020604051808303815f875af11580156125fe573d5f5f3e3d5ffd5b505050506040513d601f19601f820116820180604052508101906126229190612e24565b979650505050505050565b60405163095ea7b360e01b5f8181526001600160a01b038616600452602485905291602083604481808b5af1925060015f51148316612683578383151615612677573d5f823e3d81fd5b5f873b113d1516831692505b60405250949350505050565b7f878245876662ba28a480c5ea71726db859fb50222b0a3d7cbbc21cfa336faf0080545f516020612ea35f395f51905f528054604051637d6e912360e11b81529293926001600160a01b039091169063fadd2246906126f2908990600401612e3f565b5f604051808303815f87803b158015612709575f5ffd5b505af115801561271b573d5f5f3e3d5ffd5b5050506002820154604051633263b83b60e01b81526001600160a01b039091169150633263b83b9086906127579087908b908b90600401612e51565b5f604051808303818588803b15801561276e575f5ffd5b505af1158015612780573d5f5f3e3d5ffd5b505050505061278f83876127aa565b8154825f61279c83612cab565b919050555050509392505050565b5f8281527f878245876662ba28a480c5ea71726db859fb50222b0a3d7cbbc21cfa336faf0160205260409020547f878245876662ba28a480c5ea71726db859fb50222b0a3d7cbbc21cfa336faf00901561281757604051633f06d22b60e01b815260040160405180910390fd5b5f838152600182016020908152604090912083516128379285019061283d565b50505050565b828054828255905f5260205f20908101928215612876579160200282015b8281111561287657825182559160200191906001019061285b565b50611cea9291505b80821115611cea575f815560010161287e565b5f602082840312156128a1575f5ffd5b5035919050565b6001600160a01b038116811461061a575f5ffd5b5f5f604083850312156128cd575f5ffd5b8235915060208301356128df816128a8565b809150509250929050565b5f5f83601f8401126128fa575f5ffd5b5081356001600160401b03811115612910575f5ffd5b602083019150836020828501011115612927575f5ffd5b9250929050565b5f5f5f5f5f60808688031215612942575f5ffd5b85359450602086013593506040860135925060608601356001600160401b0381111561296c575f5ffd5b612978888289016128ea565b969995985093965092949392505050565b634e487b7160e01b5f52602160045260245ffd5b87815260e08101600488106129b4576129b4612989565b60208201979097526001600160401b039586166040820152938516606085015263ffffffff929092166080840152831660a083015290911660c090910152919050565b801515811461061a575f5ffd5b5f5f60408385031215612a15575f5ffd5b8235915060208301356128df816129f7565b634e487b7160e01b5f52604160045260245ffd5b5f82601f830112612a4a575f5ffd5b81356001600160401b03811115612a6357612a63612a27565b604051601f8201601f19908116603f011681016001600160401b0381118282101715612a9157612a91612a27565b604052818152838201602001851015612aa8575f5ffd5b816020850160208301375f918101602001919091529392505050565b5f5f5f60608486031215612ad6575f5ffd5b8335925060208401356001600160401b03811115612af2575f5ffd5b612afe86828701612a3b565b92505060408401356001600160401b03811115612b19575f5ffd5b612b2586828701612a3b565b9150509250925092565b6001600160401b038116811461061a575f5ffd5b5f60208284031215612b53575f5ffd5b8135611cd881612b2f565b5f5f5f60608486031215612b70575f5ffd5b8335612b7b816128a8565b92506020840135612b8b816128a8565b91506040840135612b9b816128a8565b809150509250925092565b5f5f5f5f60608587031215612bb9575f5ffd5b843593506020850135925060408501356001600160401b03811115612bdc575f5ffd5b612be8878288016128ea565b95989497509550505050565b5f60208284031215612c04575f5ffd5b8135611cd8816128a8565b5f60208284031215612c1f575f5ffd5b5051919050565b634e487b7160e01b5f52601160045260245ffd5b63ffffffff818116838216019081111561081057610810612c26565b6001600160401b03818116838216019081111561081057610810612c26565b5f60208284031215612c85575f5ffd5b8151611cd881612b2f565b5f60208284031215612ca0575f5ffd5b8151611cd8816128a8565b5f60018201612cbc57612cbc612c26565b5060010190565b634e487b7160e01b5f52603260045260245ffd5b92835260208301919091526001600160f81b031916604082015260600190565b60548110612d0757612d07612989565b9052565b82815260408101611cd86020830184612cf7565b5f81518084528060208401602086015e5f602082860101526020601f19601f83011685010191505092915050565b8481526001600160a01b03841660208201526080604082018190525f90612d7690830185612d1f565b9050610e6f6060830184612cf7565b8082018082111561081057610810612c26565b5f83518060208601845e9190910191825250602001919050565b5f8151808452602084019350602083015f5b82811015612de2578151865260209586019590910190600101612dc4565b5093949350505050565b606081525f612dfe6060830186612db2565b8281036020840152612e108186612d1f565b905082810360408401526121008185612d1f565b5f60208284031215612e34575f5ffd5b8151611cd8816129f7565b602081525f611cd86020830184612db2565b838152606060208201525f612e696060830185612db2565b905063ffffffff60e01b8316604083015294935050505056fe9e7b61f58c47dc699ac88507c4f5bb9f121c03808c5676a8078fe583e46497019e7b61f58c47dc699ac88507c4f5bb9f121c03808c5676a8078fe583e46497009b779b17422d0df92223018b32b4d1fa46e071723d6817e2486d003becc55f00a2646970667358221220f7fddda0d90118a945bda100debb4ece8e7440bac5f815d0583e3a06cc93e74d64736f6c634300081b0033",
  "devdoc": {
    "author": "VeilYield",
    "details": "Privacy model is an anonymity-set model. The set is the number of INDEPENDENT         depositors in a batch. A batch cannot be dispatched before `minBatchAge` has elapsed,         giving organic depositors time to accumulate. This is the same honest tradeoff Zama         documents for its v1 vault stack: meaningful privacy vs. passive observers, materially         higher cost to actively deanonymize, NOT unconditional privacy against an adversary         willing to dominate a batch.         The contract NEVER branches on encrypted values. Conditional logic uses FHE.select and         the ERC-7984 \"no-revert, transfer 0\" convention. A batch can never get permanently         stuck: every deposit can be reclaimed via quit() before dispatch, and a dispatched         batch either settles or is cancelled.",
    "errors": {
      "OwnableInvalidOwner(address)": [
        {
          "details": "The owner is not a valid owner account. (eg. `address(0)`)"
        }
      ],
      "OwnableUnauthorizedAccount(address)": [
        {
          "details": "The caller account is not authorized to perform an operation."
        }
      ],
      "ReentrancyGuardReentrantCall()": [
        {
          "details": "Unauthorized reentrant call."
        }
      ],
      "SafeERC20FailedOperation(address)": [
        {
          "details": "An operation with an ERC-20 token failed."
        }
      ]
    },
    "kind": "dev",
    "methods": {
      "acceptOwnership()": {
        "details": "The new owner accepts the ownership transfer."
      },
      "claim(uint256)": {
        "details": "deposit_i stays encrypted end-to-end; only the public batch-wide ratio is used."
      },
      "dispatchBatch(uint256)": {
        "details": "Permissionless — anyone may dispatch once the batch is old enough. The only value         that ever leaves the encrypted domain is the pool-wide sum."
      },
      "join(uint256,bytes32,bytes)": {
        "details": "The router must be an ERC-7984 operator for the caller on the deposit token         (call depositToken.setOperator(router, until) first), exactly like the OZ         confidential swap pattern. The confidential pull uses confidentialTransferFrom,         which transfers 0 (never reverts) if the user is short, preventing balance leaks.",
        "params": {
          "encryptedAmount": "Externally-encrypted euint64 deposit amount.",
          "inputProof": "ZK proof binding the ciphertext to (this contract, msg.sender).",
          "vaultId": "The registered vault to deposit into."
        }
      },
      "migrate(uint256,uint256,bytes32,bytes)": {
        "details": "This is the headline composability flow demonstrated end-to-end: a confidential asset         hops from one public DeFi venue's accounting into another's, fully encrypted, in one         transaction surface. The migrant inherits the destination batch's anonymity set, and         the moved amount never appears in cleartext at any point.         Settlement of the destination batch is then identical to a normal deposit: the         aggregate is decrypted, a single pooled deposit hits vault B, and the migrant claims         confidential vault-B shares pro-rata — so the migrated batch can never get stuck.         The router must be an operator for the caller on the destination DEPOSIT token.",
        "params": {
          "encryptedAmount": "Externally-encrypted euint64 amount of confidential deposit tokens.",
          "fromVaultId": "Source vault id (for event/UX context only).",
          "inputProof": "ZK proof binding the ciphertext to (this contract, msg.sender).",
          "toVaultId": "Destination registered vault to migrate into."
        }
      },
      "owner()": {
        "details": "Returns the address of the current owner."
      },
      "pendingOwner()": {
        "details": "Returns the address of the pending owner."
      },
      "quit(uint256)": {
        "details": "Returns the caller's confidential deposit back and zeroes their batch entry.         Always available pre-dispatch, so funds are never trapped."
      },
      "registerVault(address,address,address)": {
        "params": {
          "depositToken": "The ERC-7984 wrapper over `vault.asset()` (e.g. cUSDC).",
          "shareToken": "The ERC-7984 wrapper over the vault's share token.",
          "vault": "The public ERC-4626 yield vault."
        }
      },
      "renounceOwnership()": {
        "details": "Leaves the contract without owner. It will not be possible to call `onlyOwner` functions. Can only be called by the current owner. NOTE: Renouncing ownership will leave the contract without an owner, thereby disabling any functionality that is only available to the owner."
      },
      "settleBatchCallback(uint256,bytes,bytes)": {
        "details": "MUST verify the gateway signatures. The decrypted value is the pool total, not any         individual's amount."
      },
      "transferOwnership(address)": {
        "details": "Starts the ownership transfer of the contract to a new account. Replaces the pending transfer if there is one. Can only be called by the current owner. Setting `newOwner` to the zero address is allowed; this can be used to cancel an initiated ownership transfer."
      }
    },
    "stateVariables": {
      "minBatchAge": {
        "details": "Owner-tunable knob trading settlement speed for anonymity-set size."
      }
    },
    "title": "ConfidentialVaultRouter",
    "version": 1
  },
  "userdoc": {
    "errors": {
      "HandlesAlreadySavedForRequestID()": [
        {
          "notice": "Returned if some handles were already saved for corresponding ID."
        }
      ],
      "InvalidKMSSignatures()": [
        {
          "notice": "Returned if the returned KMS signatures are not valid."
        }
      ],
      "NoHandleFoundForRequestID()": [
        {
          "notice": "Returned if there was not handle found for the requested ID."
        }
      ]
    },
    "events": {
      "DecryptionFulfilled(uint256)": {
        "notice": "This event is emitted when requested decryption has been fulfilled."
      }
    },
    "kind": "user",
    "methods": {
      "claim(uint256)": {
        "notice": "Claim your confidential vault shares from a SETTLED batch, computed pro-rata in         the encrypted domain: shares_i = deposit_i * totalShares / totalAssets."
      },
      "currentAnonymitySet(uint256)": {
        "notice": "The current anonymity-set size (distinct depositors) of a vault's open batch."
      },
      "depositOf(uint256,address)": {
        "notice": "Encrypted handle of the caller's deposit in a batch (user-decryptable by them)."
      },
      "dispatchBatch(uint256)": {
        "notice": "Dispatch the open batch for a vault: closes it to new joins, requests decryption         of ONLY the aggregate total, and opens the next batch immediately."
      },
      "getBatch(uint256)": {
        "notice": "Public, non-sensitive view of a batch's lifecycle and anonymity-set size."
      },
      "join(uint256,bytes32,bytes)": {
        "notice": "Join the currently-open deposit batch for `vaultId` with an encrypted amount."
      },
      "migrate(uint256,uint256,bytes32,bytes)": {
        "notice": "Move a confidential position from one vault to another in a single click, without         ever revealing the amount. The user supplies confidential deposit tokens (e.g. cUSDC         they hold after exiting vault A, or fresh balance) and the router credits them into         the OPEN batch of the destination vault B in the encrypted domain."
      },
      "minBatchAge()": {
        "notice": "Minimum age (in seconds) a batch must reach before it can be dispatched."
      },
      "openBatchOf(uint256)": {
        "notice": "The id of the currently-open batch for a given vault (0 means none open)."
      },
      "quit(uint256)": {
        "notice": "Reclaim a pending deposit from an OPEN batch before it is dispatched."
      },
      "reclaim(uint256)": {
        "notice": "Reclaim your original confidential deposit from a CANCELLED batch."
      },
      "registerVault(address,address,address)": {
        "notice": "Register a public ERC-4626 vault and the confidential wrappers around its         asset and share tokens, making it routable."
      },
      "setMinBatchAge(uint64)": {
        "notice": "Update the minimum batch age (anonymity-set vs. speed knob)."
      },
      "setVaultEnabled(uint256,bool)": {
        "notice": "Enable or pause new joins for a registered vault."
      },
      "settleBatchCallback(uint256,bytes,bytes)": {
        "notice": "Gateway callback delivering the decrypted aggregate total. Performs the single         pooled vault deposit and records the public batch-wide exchange rate inputs."
      }
    },
    "notice": "A confidential, composable yield router for the Zama Protocol.         Users deposit a confidential token (an ERC-7984 wrapper over an ERC-20, e.g. cUSDC)         into one of several registered public ERC-4626 yield vaults (e.g. a Morpho vault),         WITHOUT revealing their individual deposit amount on-chain.         The privacy comes from POOLING: many users join a batch with encrypted amounts;         the contract aggregates them homomorphically; at dispatch ONLY the aggregate total         is decrypted; a single deposit is routed into the public vault on behalf of the whole         pool; and each user claims their confidential vault-share balance back pro-rata,         entirely in the encrypted domain.         This is the Season 3 \"Composable Privacy\" thesis made concrete: a confidential asset         (ERC-7984) composed with the rest of the public EVM (ERC-4626) through an audited         pooling pattern, with a one-click confidential cross-vault MIGRATION on top — a flow         that the official single-vault v1 batcher does not yet expose to users.",
    "version": 1
  },
  "storageLayout": {
    "storage": [
      {
        "astId": 39029,
        "contract": "contracts/ConfidentialVaultRouter.sol:ConfidentialVaultRouter",
        "label": "_owner",
        "offset": 0,
        "slot": "0",
        "type": "t_address"
      },
      {
        "astId": 39177,
        "contract": "contracts/ConfidentialVaultRouter.sol:ConfidentialVaultRouter",
        "label": "_pendingOwner",
        "offset": 0,
        "slot": "1",
        "type": "t_address"
      },
      {
        "astId": 40234,
        "contract": "contracts/ConfidentialVaultRouter.sol:ConfidentialVaultRouter",
        "label": "minBatchAge",
        "offset": 20,
        "slot": "1",
        "type": "t_uint64"
      },
      {
        "astId": 40236,
        "contract": "contracts/ConfidentialVaultRouter.sol:ConfidentialVaultRouter",
        "label": "vaultCount",
        "offset": 0,
        "slot": "2",
        "type": "t_uint256"
      },
      {
        "astId": 40241,
        "contract": "contracts/ConfidentialVaultRouter.sol:ConfidentialVaultRouter",
        "label": "vaults",
        "offset": 0,
        "slot": "3",
        "type": "t_mapping(t_uint256,t_struct(VaultInfo)40212_storage)"
      },
      {
        "astId": 40246,
        "contract": "contracts/ConfidentialVaultRouter.sol:ConfidentialVaultRouter",
        "label": "openBatchOf",
        "offset": 0,
        "slot": "4",
        "type": "t_mapping(t_uint256,t_uint256)"
      },
      {
        "astId": 40248,
        "contract": "contracts/ConfidentialVaultRouter.sol:ConfidentialVaultRouter",
        "label": "batchCount",
        "offset": 0,
        "slot": "5",
        "type": "t_uint256"
      },
      {
        "astId": 40253,
        "contract": "contracts/ConfidentialVaultRouter.sol:ConfidentialVaultRouter",
        "label": "_batches",
        "offset": 0,
        "slot": "6",
        "type": "t_mapping(t_uint256,t_struct(Batch)40231_storage)"
      },
      {
        "astId": 40261,
        "contract": "contracts/ConfidentialVaultRouter.sol:ConfidentialVaultRouter",
        "label": "_depositOf",
        "offset": 0,
        "slot": "7",
        "type": "t_mapping(t_uint256,t_mapping(t_address,t_userDefinedValueType(euint64)42678))"
      },
      {
        "astId": 40268,
        "contract": "contracts/ConfidentialVaultRouter.sol:ConfidentialVaultRouter",
        "label": "_hasJoined",
        "offset": 0,
        "slot": "8",
        "type": "t_mapping(t_uint256,t_mapping(t_address,t_bool))"
      },
      {
        "astId": 40275,
        "contract": "contracts/ConfidentialVaultRouter.sol:ConfidentialVaultRouter",
        "label": "_claimed",
        "offset": 0,
        "slot": "9",
        "type": "t_mapping(t_uint256,t_mapping(t_address,t_bool))"
      },
      {
        "astId": 40280,
        "contract": "contracts/ConfidentialVaultRouter.sol:ConfidentialVaultRouter",
        "label": "_requestToBatch",
        "offset": 0,
        "slot": "10",
        "type": "t_mapping(t_uint256,t_uint256)"
      }
    ],
    "types": {
      "t_address": {
        "encoding": "inplace",
        "label": "address",
        "numberOfBytes": "20"
      },
      "t_bool": {
        "encoding": "inplace",
        "label": "bool",
        "numberOfBytes": "1"
      },
      "t_contract(IConfidentialToken)41981": {
        "encoding": "inplace",
        "label": "contract IConfidentialToken",
        "numberOfBytes": "20"
      },
      "t_contract(IERC4626Minimal)42035": {
        "encoding": "inplace",
        "label": "contract IERC4626Minimal",
        "numberOfBytes": "20"
      },
      "t_enum(BatchStatus)40198": {
        "encoding": "inplace",
        "label": "enum ConfidentialVaultRouter.BatchStatus",
        "numberOfBytes": "1"
      },
      "t_mapping(t_address,t_bool)": {
        "encoding": "mapping",
        "key": "t_address",
        "label": "mapping(address => bool)",
        "numberOfBytes": "32",
        "value": "t_bool"
      },
      "t_mapping(t_address,t_userDefinedValueType(euint64)42678)": {
        "encoding": "mapping",
        "key": "t_address",
        "label": "mapping(address => euint64)",
        "numberOfBytes": "32",
        "value": "t_userDefinedValueType(euint64)42678"
      },
      "t_mapping(t_uint256,t_mapping(t_address,t_bool))": {
        "encoding": "mapping",
        "key": "t_uint256",
        "label": "mapping(uint256 => mapping(address => bool))",
        "numberOfBytes": "32",
        "value": "t_mapping(t_address,t_bool)"
      },
      "t_mapping(t_uint256,t_mapping(t_address,t_userDefinedValueType(euint64)42678))": {
        "encoding": "mapping",
        "key": "t_uint256",
        "label": "mapping(uint256 => mapping(address => euint64))",
        "numberOfBytes": "32",
        "value": "t_mapping(t_address,t_userDefinedValueType(euint64)42678)"
      },
      "t_mapping(t_uint256,t_struct(Batch)40231_storage)": {
        "encoding": "mapping",
        "key": "t_uint256",
        "label": "mapping(uint256 => struct ConfidentialVaultRouter.Batch)",
        "numberOfBytes": "32",
        "value": "t_struct(Batch)40231_storage"
      },
      "t_mapping(t_uint256,t_struct(VaultInfo)40212_storage)": {
        "encoding": "mapping",
        "key": "t_uint256",
        "label": "mapping(uint256 => struct ConfidentialVaultRouter.VaultInfo)",
        "numberOfBytes": "32",
        "value": "t_struct(VaultInfo)40212_storage"
      },
      "t_mapping(t_uint256,t_uint256)": {
        "encoding": "mapping",
        "key": "t_uint256",
        "label": "mapping(uint256 => uint256)",
        "numberOfBytes": "32",
        "value": "t_uint256"
      },
      "t_struct(Batch)40231_storage": {
        "encoding": "inplace",
        "label": "struct ConfidentialVaultRouter.Batch",
        "members": [
          {
            "astId": 40214,
            "contract": "contracts/ConfidentialVaultRouter.sol:ConfidentialVaultRouter",
            "label": "vaultId",
            "offset": 0,
            "slot": "0",
            "type": "t_uint256"
          },
          {
            "astId": 40217,
            "contract": "contracts/ConfidentialVaultRouter.sol:ConfidentialVaultRouter",
            "label": "status",
            "offset": 0,
            "slot": "1",
            "type": "t_enum(BatchStatus)40198"
          },
          {
            "astId": 40219,
            "contract": "contracts/ConfidentialVaultRouter.sol:ConfidentialVaultRouter",
            "label": "createdAt",
            "offset": 1,
            "slot": "1",
            "type": "t_uint64"
          },
          {
            "astId": 40222,
            "contract": "contracts/ConfidentialVaultRouter.sol:ConfidentialVaultRouter",
            "label": "encryptedTotal",
            "offset": 0,
            "slot": "2",
            "type": "t_userDefinedValueType(euint64)42678"
          },
          {
            "astId": 40224,
            "contract": "contracts/ConfidentialVaultRouter.sol:ConfidentialVaultRouter",
            "label": "decryptionRequestId",
            "offset": 0,
            "slot": "3",
            "type": "t_uint256"
          },
          {
            "astId": 40226,
            "contract": "contracts/ConfidentialVaultRouter.sol:ConfidentialVaultRouter",
            "label": "clearTotalAssets",
            "offset": 0,
            "slot": "4",
            "type": "t_uint64"
          },
          {
            "astId": 40228,
            "contract": "contracts/ConfidentialVaultRouter.sol:ConfidentialVaultRouter",
            "label": "clearTotalShares",
            "offset": 8,
            "slot": "4",
            "type": "t_uint64"
          },
          {
            "astId": 40230,
            "contract": "contracts/ConfidentialVaultRouter.sol:ConfidentialVaultRouter",
            "label": "depositorCount",
            "offset": 16,
            "slot": "4",
            "type": "t_uint32"
          }
        ],
        "numberOfBytes": "160"
      },
      "t_struct(VaultInfo)40212_storage": {
        "encoding": "inplace",
        "label": "struct ConfidentialVaultRouter.VaultInfo",
        "members": [
          {
            "astId": 40201,
            "contract": "contracts/ConfidentialVaultRouter.sol:ConfidentialVaultRouter",
            "label": "vault",
            "offset": 0,
            "slot": "0",
            "type": "t_contract(IERC4626Minimal)42035"
          },
          {
            "astId": 40204,
            "contract": "contracts/ConfidentialVaultRouter.sol:ConfidentialVaultRouter",
            "label": "depositToken",
            "offset": 0,
            "slot": "1",
            "type": "t_contract(IConfidentialToken)41981"
          },
          {
            "astId": 40207,
            "contract": "contracts/ConfidentialVaultRouter.sol:ConfidentialVaultRouter",
            "label": "shareToken",
            "offset": 0,
            "slot": "2",
            "type": "t_contract(IConfidentialToken)41981"
          },
          {
            "astId": 40209,
            "contract": "contracts/ConfidentialVaultRouter.sol:ConfidentialVaultRouter",
            "label": "enabled",
            "offset": 20,
            "slot": "2",
            "type": "t_bool"
          },
          {
            "astId": 40211,
            "contract": "contracts/ConfidentialVaultRouter.sol:ConfidentialVaultRouter",
            "label": "exists",
            "offset": 21,
            "slot": "2",
            "type": "t_bool"
          }
        ],
        "numberOfBytes": "96"
      },
      "t_uint256": {
        "encoding": "inplace",
        "label": "uint256",
        "numberOfBytes": "32"
      },
      "t_uint32": {
        "encoding": "inplace",
        "label": "uint32",
        "numberOfBytes": "4"
      },
      "t_uint64": {
        "encoding": "inplace",
        "label": "uint64",
        "numberOfBytes": "8"
      },
      "t_userDefinedValueType(euint64)42678": {
        "encoding": "inplace",
        "label": "euint64",
        "numberOfBytes": "32"
      }
    }
  }
}