{
  "address": "0x25769fE40d5Be10df14550647c60c6b85b7D9387",
  "abi": [
    {
      "inputs": [
        {
          "internalType": "contract IERC20",
          "name": "asset_",
          "type": "address"
        },
        {
          "internalType": "string",
          "name": "name_",
          "type": "string"
        },
        {
          "internalType": "string",
          "name": "symbol_",
          "type": "string"
        },
        {
          "internalType": "uint256",
          "name": "rateBps_",
          "type": "uint256"
        }
      ],
      "stateMutability": "nonpayable",
      "type": "constructor"
    },
    {
      "inputs": [
        {
          "internalType": "address",
          "name": "spender",
          "type": "address"
        },
        {
          "internalType": "uint256",
          "name": "allowance",
          "type": "uint256"
        },
        {
          "internalType": "uint256",
          "name": "needed",
          "type": "uint256"
        }
      ],
      "name": "ERC20InsufficientAllowance",
      "type": "error"
    },
    {
      "inputs": [
        {
          "internalType": "address",
          "name": "sender",
          "type": "address"
        },
        {
          "internalType": "uint256",
          "name": "balance",
          "type": "uint256"
        },
        {
          "internalType": "uint256",
          "name": "needed",
          "type": "uint256"
        }
      ],
      "name": "ERC20InsufficientBalance",
      "type": "error"
    },
    {
      "inputs": [
        {
          "internalType": "address",
          "name": "approver",
          "type": "address"
        }
      ],
      "name": "ERC20InvalidApprover",
      "type": "error"
    },
    {
      "inputs": [
        {
          "internalType": "address",
          "name": "receiver",
          "type": "address"
        }
      ],
      "name": "ERC20InvalidReceiver",
      "type": "error"
    },
    {
      "inputs": [
        {
          "internalType": "address",
          "name": "sender",
          "type": "address"
        }
      ],
      "name": "ERC20InvalidSender",
      "type": "error"
    },
    {
      "inputs": [
        {
          "internalType": "address",
          "name": "spender",
          "type": "address"
        }
      ],
      "name": "ERC20InvalidSpender",
      "type": "error"
    },
    {
      "inputs": [
        {
          "internalType": "address",
          "name": "token",
          "type": "address"
        }
      ],
      "name": "SafeERC20FailedOperation",
      "type": "error"
    },
    {
      "anonymous": false,
      "inputs": [
        {
          "indexed": true,
          "internalType": "address",
          "name": "owner",
          "type": "address"
        },
        {
          "indexed": true,
          "internalType": "address",
          "name": "spender",
          "type": "address"
        },
        {
          "indexed": false,
          "internalType": "uint256",
          "name": "value",
          "type": "uint256"
        }
      ],
      "name": "Approval",
      "type": "event"
    },
    {
      "anonymous": false,
      "inputs": [
        {
          "indexed": true,
          "internalType": "address",
          "name": "from",
          "type": "address"
        },
        {
          "indexed": true,
          "internalType": "address",
          "name": "to",
          "type": "address"
        },
        {
          "indexed": false,
          "internalType": "uint256",
          "name": "value",
          "type": "uint256"
        }
      ],
      "name": "Transfer",
      "type": "event"
    },
    {
      "inputs": [
        {
          "internalType": "address",
          "name": "owner",
          "type": "address"
        },
        {
          "internalType": "address",
          "name": "spender",
          "type": "address"
        }
      ],
      "name": "allowance",
      "outputs": [
        {
          "internalType": "uint256",
          "name": "",
          "type": "uint256"
        }
      ],
      "stateMutability": "view",
      "type": "function"
    },
    {
      "inputs": [
        {
          "internalType": "address",
          "name": "spender",
          "type": "address"
        },
        {
          "internalType": "uint256",
          "name": "value",
          "type": "uint256"
        }
      ],
      "name": "approve",
      "outputs": [
        {
          "internalType": "bool",
          "name": "",
          "type": "bool"
        }
      ],
      "stateMutability": "nonpayable",
      "type": "function"
    },
    {
      "inputs": [],
      "name": "asset",
      "outputs": [
        {
          "internalType": "address",
          "name": "",
          "type": "address"
        }
      ],
      "stateMutability": "view",
      "type": "function"
    },
    {
      "inputs": [
        {
          "internalType": "address",
          "name": "account",
          "type": "address"
        }
      ],
      "name": "balanceOf",
      "outputs": [
        {
          "internalType": "uint256",
          "name": "",
          "type": "uint256"
        }
      ],
      "stateMutability": "view",
      "type": "function"
    },
    {
      "inputs": [],
      "name": "decimals",
      "outputs": [
        {
          "internalType": "uint8",
          "name": "",
          "type": "uint8"
        }
      ],
      "stateMutability": "pure",
      "type": "function"
    },
    {
      "inputs": [
        {
          "internalType": "uint256",
          "name": "assets",
          "type": "uint256"
        },
        {
          "internalType": "address",
          "name": "receiver",
          "type": "address"
        }
      ],
      "name": "deposit",
      "outputs": [
        {
          "internalType": "uint256",
          "name": "shares",
          "type": "uint256"
        }
      ],
      "stateMutability": "nonpayable",
      "type": "function"
    },
    {
      "inputs": [],
      "name": "name",
      "outputs": [
        {
          "internalType": "string",
          "name": "",
          "type": "string"
        }
      ],
      "stateMutability": "view",
      "type": "function"
    },
    {
      "inputs": [
        {
          "internalType": "uint256",
          "name": "assets",
          "type": "uint256"
        }
      ],
      "name": "previewDeposit",
      "outputs": [
        {
          "internalType": "uint256",
          "name": "",
          "type": "uint256"
        }
      ],
      "stateMutability": "view",
      "type": "function"
    },
    {
      "inputs": [
        {
          "internalType": "uint256",
          "name": "shares",
          "type": "uint256"
        }
      ],
      "name": "previewRedeem",
      "outputs": [
        {
          "internalType": "uint256",
          "name": "",
          "type": "uint256"
        }
      ],
      "stateMutability": "view",
      "type": "function"
    },
    {
      "inputs": [],
      "name": "rateBps",
      "outputs": [
        {
          "internalType": "uint256",
          "name": "",
          "type": "uint256"
        }
      ],
      "stateMutability": "view",
      "type": "function"
    },
    {
      "inputs": [
        {
          "internalType": "uint256",
          "name": "shares",
          "type": "uint256"
        },
        {
          "internalType": "address",
          "name": "receiver",
          "type": "address"
        },
        {
          "internalType": "address",
          "name": "owner",
          "type": "address"
        }
      ],
      "name": "redeem",
      "outputs": [
        {
          "internalType": "uint256",
          "name": "assets",
          "type": "uint256"
        }
      ],
      "stateMutability": "nonpayable",
      "type": "function"
    },
    {
      "inputs": [
        {
          "internalType": "uint256",
          "name": "newRateBps",
          "type": "uint256"
        }
      ],
      "name": "setRateBps",
      "outputs": [],
      "stateMutability": "nonpayable",
      "type": "function"
    },
    {
      "inputs": [],
      "name": "symbol",
      "outputs": [
        {
          "internalType": "string",
          "name": "",
          "type": "string"
        }
      ],
      "stateMutability": "view",
      "type": "function"
    },
    {
      "inputs": [],
      "name": "totalAssets",
      "outputs": [
        {
          "internalType": "uint256",
          "name": "",
          "type": "uint256"
        }
      ],
      "stateMutability": "view",
      "type": "function"
    },
    {
      "inputs": [],
      "name": "totalSupply",
      "outputs": [
        {
          "internalType": "uint256",
          "name": "",
          "type": "uint256"
        }
      ],
      "stateMutability": "view",
      "type": "function"
    },
    {
      "inputs": [
        {
          "internalType": "address",
          "name": "to",
          "type": "address"
        },
        {
          "internalType": "uint256",
          "name": "value",
          "type": "uint256"
        }
      ],
      "name": "transfer",
      "outputs": [
        {
          "internalType": "bool",
          "name": "",
          "type": "bool"
        }
      ],
      "stateMutability": "nonpayable",
      "type": "function"
    },
    {
      "inputs": [
        {
          "internalType": "address",
          "name": "from",
          "type": "address"
        },
        {
          "internalType": "address",
          "name": "to",
          "type": "address"
        },
        {
          "internalType": "uint256",
          "name": "value",
          "type": "uint256"
        }
      ],
      "name": "transferFrom",
      "outputs": [
        {
          "internalType": "bool",
          "name": "",
          "type": "bool"
        }
      ],
      "stateMutability": "nonpayable",
      "type": "function"
    }
  ],
  "transactionHash": "0xa763383a3b8f564737af79b653f54d3244048f83565a0847b93b5fb1d64ce841",
  "args": [
    "0x3313910634df0ea4Ea9dfd2CB99a196f502B4b57",
    "Steakhouse Prime Shares",
    "stPRIME",
    10000
  ],
  "numDeployments": 1,
  "solcInputHash": "a735295289c004074d8df84548d38659",
  "bytecode": "0x60a060405234801561000f575f5ffd5b50604051610f19380380610f1983398101604081905261002e91610113565b8282600361003c8382610221565b5060046100498282610221565b5050506001600160a01b03841660805280156100655780610069565b6127105b600555506102db92505050565b634e487b7160e01b5f52604160045260245ffd5b5f82601f830112610099575f5ffd5b81516001600160401b038111156100b2576100b2610076565b604051601f8201601f19908116603f011681016001600160401b03811182821017156100e0576100e0610076565b6040528181528382016020018510156100f7575f5ffd5b8160208501602083015e5f918101602001919091529392505050565b5f5f5f5f60808587031215610126575f5ffd5b84516001600160a01b038116811461013c575f5ffd5b60208601519094506001600160401b03811115610157575f5ffd5b6101638782880161008a565b604087015190945090506001600160401b03811115610180575f5ffd5b61018c8782880161008a565b606096909601519497939650505050565b600181811c908216806101b157607f821691505b6020821081036101cf57634e487b7160e01b5f52602260045260245ffd5b50919050565b601f82111561021c57805f5260205f20601f840160051c810160208510156101fa5750805b601f840160051c820191505b81811015610219575f8155600101610206565b50505b505050565b81516001600160401b0381111561023a5761023a610076565b61024e81610248845461019d565b846101d5565b6020601f821160018114610280575f83156102695750848201515b5f19600385901b1c1916600184901b178455610219565b5f84815260208120601f198516915b828110156102af578785015182556020948501946001909201910161028f565b50848210156102cc57868401515f19600387901b60f8161c191681555b50505050600190811b01905550565b608051610c116103085f395f818161019d015281816102ba0152818161042801526104bf0152610c115ff3fe608060405234801561000f575f5ffd5b5060043610610106575f3560e01c80634cdad5061161009e578063a9059cbb1161006e578063a9059cbb1461021d578063ba08765214610230578063bd84dc6114610243578063dd62ed3e14610258578063ef8b30f714610290575f5ffd5b80634cdad506146101c75780636e553f65146101da57806370a08231146101ed57806395d89b4114610215575f5ffd5b806319d327dd116100d957806319d327dd1461016557806323b872dd1461016e578063313ce5671461018157806338d52e0f14610190575f5ffd5b806301e1d1141461010a57806306fdde0314610125578063095ea7b31461013a57806318160ddd1461015d575b5f5ffd5b6101126102a3565b6040519081526020015b60405180910390f35b61012d610330565b60405161011c91906109c2565b61014d610148366004610a12565b6103c0565b604051901515815260200161011c565b600254610112565b61011260055481565b61014d61017c366004610a3a565b6103d9565b6040516006815260200161011c565b6040516001600160a01b037f000000000000000000000000000000000000000000000000000000000000000016815260200161011c565b6101126101d5366004610a74565b6103fe565b6101126101e8366004610a8b565b61041a565b6101126101fb366004610ab5565b6001600160a01b03165f9081526020819052604090205490565b61012d610465565b61014d61022b366004610a12565b610474565b61011261023e366004610ace565b610481565b610256610251366004610a74565b6104e6565b005b610112610266366004610b07565b6001600160a01b039182165f90815260016020908152604080832093909416825291909152205490565b61011261029e366004610a74565b610528565b6040516370a0823160e01b81523060048201525f907f00000000000000000000000000000000000000000000000000000000000000006001600160a01b0316906370a0823190602401602060405180830381865afa158015610307573d5f5f3e3d5ffd5b505050506040513d601f19601f8201168201806040525081019061032b9190610b2f565b905090565b60606003805461033f90610b46565b80601f016020809104026020016040519081016040528092919081815260200182805461036b90610b46565b80156103b65780601f1061038d576101008083540402835291602001916103b6565b820191905f5260205f20905b81548152906001019060200180831161039957829003601f168201915b5050505050905090565b5f336103cd818585610539565b60019150505b92915050565b5f336103e685828561054b565b6103f18585856105c7565b60019150505b9392505050565b5f612710600554836104109190610b92565b6103d39190610ba9565b5f6104506001600160a01b037f000000000000000000000000000000000000000000000000000000000000000016333086610624565b61045983610528565b90506103d3828261065a565b60606004805461033f90610b46565b5f336103cd8185856105c7565b5f6001600160a01b038216331461049d5761049d82338661054b565b6104a78285610692565b6104b0846103fe565b90506103f76001600160a01b037f00000000000000000000000000000000000000000000000000000000000000001684836106c6565b5f81116105235760405162461bcd60e51b81526020600482015260066024820152650726174653d360d41b60448201526064015b60405180910390fd5b600555565b6005545f9061041083612710610b92565b61054683838360016106fb565b505050565b6001600160a01b038381165f908152600160209081526040808320938616835292905220545f198110156105c157818110156105b357604051637dc7a0d960e11b81526001600160a01b0384166004820152602481018290526044810183905260640161051a565b6105c184848484035f6106fb565b50505050565b6001600160a01b0383166105f057604051634b637e8f60e11b81525f600482015260240161051a565b6001600160a01b0382166106195760405163ec442f0560e01b81525f600482015260240161051a565b6105468383836107cd565b6106328484848460016108f3565b6105c157604051635274afe760e01b81526001600160a01b038516600482015260240161051a565b6001600160a01b0382166106835760405163ec442f0560e01b81525f600482015260240161051a565b61068e5f83836107cd565b5050565b6001600160a01b0382166106bb57604051634b637e8f60e11b81525f600482015260240161051a565b61068e825f836107cd565b6106d38383836001610960565b61054657604051635274afe760e01b81526001600160a01b038416600482015260240161051a565b6001600160a01b0384166107245760405163e602df0560e01b81525f600482015260240161051a565b6001600160a01b03831661074d57604051634a1406b160e11b81525f600482015260240161051a565b6001600160a01b038085165f90815260016020908152604080832093871683529290522082905580156105c157826001600160a01b0316846001600160a01b03167f8c5be1e5ebec7d5bd14f71427d1e84f3dd0314c0f7b2291e5b200ac8c7c3b925846040516107bf91815260200190565b60405180910390a350505050565b6001600160a01b0383166107f7578060025f8282546107ec9190610bc8565b909155506108679050565b6001600160a01b0383165f90815260208190526040902054818110156108495760405163391434e360e21b81526001600160a01b0385166004820152602481018290526044810183905260640161051a565b6001600160a01b0384165f9081526020819052604090209082900390555b6001600160a01b038216610883576002805482900390556108a1565b6001600160a01b0382165f9081526020819052604090208054820190555b816001600160a01b0316836001600160a01b03167fddf252ad1be2c89b69c2b068fc378daa952ba7f163c4a11628f55a4df523b3ef836040516108e691815260200190565b60405180910390a3505050565b6040516323b872dd60e01b5f8181526001600160a01b038781166004528616602452604485905291602083606481808c5af1925060015f5114831661094f578383151615610943573d5f823e3d81fd5b5f883b113d1516831692505b604052505f60605295945050505050565b60405163a9059cbb60e01b5f8181526001600160a01b038616600452602485905291602083604481808b5af1925060015f511483166109b65783831516156109aa573d5f823e3d81fd5b5f873b113d1516831692505b60405250949350505050565b602081525f82518060208401528060208501604085015e5f604082850101526040601f19601f83011684010191505092915050565b80356001600160a01b0381168114610a0d575f5ffd5b919050565b5f5f60408385031215610a23575f5ffd5b610a2c836109f7565b946020939093013593505050565b5f5f5f60608486031215610a4c575f5ffd5b610a55846109f7565b9250610a63602085016109f7565b929592945050506040919091013590565b5f60208284031215610a84575f5ffd5b5035919050565b5f5f60408385031215610a9c575f5ffd5b82359150610aac602084016109f7565b90509250929050565b5f60208284031215610ac5575f5ffd5b6103f7826109f7565b5f5f5f60608486031215610ae0575f5ffd5b83359250610af0602085016109f7565b9150610afe604085016109f7565b90509250925092565b5f5f60408385031215610b18575f5ffd5b610b21836109f7565b9150610aac602084016109f7565b5f60208284031215610b3f575f5ffd5b5051919050565b600181811c90821680610b5a57607f821691505b602082108103610b7857634e487b7160e01b5f52602260045260245ffd5b50919050565b634e487b7160e01b5f52601160045260245ffd5b80820281158282048414176103d3576103d3610b7e565b5f82610bc357634e487b7160e01b5f52601260045260245ffd5b500490565b808201808211156103d3576103d3610b7e56fea2646970667358221220d155a55fd6ea29a3f96519cd9e2f3f30a4924f8b13ef831cafafff871a1042bd64736f6c634300081b0033",
  "devdoc": {
    "details": "The vault's SHARE token here is itself an ERC-20 (this contract). The router wraps that         share ERC-20 into a confidential share token so users hold encrypted share balances.         shares = assets * 1e4 / rateBps ; assets = shares * rateBps / 1e4.",
    "errors": {
      "ERC20InsufficientAllowance(address,uint256,uint256)": [
        {
          "details": "Indicates a failure with the `spender`’s `allowance`. Used in transfers.",
          "params": {
            "allowance": "Amount of tokens a `spender` is allowed to operate with.",
            "needed": "Minimum amount required to perform a transfer.",
            "spender": "Address that may be allowed to operate on tokens without being their owner."
          }
        }
      ],
      "ERC20InsufficientBalance(address,uint256,uint256)": [
        {
          "details": "Indicates an error related to the current `balance` of a `sender`. Used in transfers.",
          "params": {
            "balance": "Current balance for the interacting account.",
            "needed": "Minimum amount required to perform a transfer.",
            "sender": "Address whose tokens are being transferred."
          }
        }
      ],
      "ERC20InvalidApprover(address)": [
        {
          "details": "Indicates a failure with the `approver` of a token to be approved. Used in approvals.",
          "params": {
            "approver": "Address initiating an approval operation."
          }
        }
      ],
      "ERC20InvalidReceiver(address)": [
        {
          "details": "Indicates a failure with the token `receiver`. Used in transfers.",
          "params": {
            "receiver": "Address to which tokens are being transferred."
          }
        }
      ],
      "ERC20InvalidSender(address)": [
        {
          "details": "Indicates a failure with the token `sender`. Used in transfers.",
          "params": {
            "sender": "Address whose tokens are being transferred."
          }
        }
      ],
      "ERC20InvalidSpender(address)": [
        {
          "details": "Indicates a failure with the `spender` to be approved. Used in approvals.",
          "params": {
            "spender": "Address that may be allowed to operate on tokens without being their owner."
          }
        }
      ],
      "SafeERC20FailedOperation(address)": [
        {
          "details": "An operation with an ERC-20 token failed."
        }
      ]
    },
    "events": {
      "Approval(address,address,uint256)": {
        "details": "Emitted when the allowance of a `spender` for an `owner` is set by a call to {approve}. `value` is the new allowance."
      },
      "Transfer(address,address,uint256)": {
        "details": "Emitted when `value` tokens are moved from one account (`from`) to another (`to`). Note that `value` may be zero."
      }
    },
    "kind": "dev",
    "methods": {
      "allowance(address,address)": {
        "details": "Returns the remaining number of tokens that `spender` will be allowed to spend on behalf of `owner` through {transferFrom}. This is zero by default. This value changes when {approve} or {transferFrom} are called."
      },
      "approve(address,uint256)": {
        "details": "See {IERC20-approve}. NOTE: If `value` is the maximum `uint256`, the allowance is not updated on `transferFrom`. This is semantically equivalent to an infinite approval. Requirements: - `spender` cannot be the zero address."
      },
      "balanceOf(address)": {
        "details": "Returns the value of tokens owned by `account`."
      },
      "decimals()": {
        "details": "Returns the number of decimals used to get its user representation. For example, if `decimals` equals `2`, a balance of `505` tokens should be displayed to a user as `5.05` (`505 / 10 ** 2`). Tokens usually opt for a value of 18, imitating the relationship between Ether and Wei. This is the default value returned by this function, unless it's overridden. NOTE: This information is only used for _display_ purposes: it in no way affects any of the arithmetic of the contract, including {IERC20-balanceOf} and {IERC20-transfer}."
      },
      "deposit(uint256,address)": {
        "returns": {
          "shares": "The amount of vault shares minted."
        }
      },
      "name()": {
        "details": "Returns the name of the token."
      },
      "redeem(uint256,address,address)": {
        "returns": {
          "assets": "The amount of underlying assets returned."
        }
      },
      "symbol()": {
        "details": "Returns the symbol of the token, usually a shorter version of the name."
      },
      "totalSupply()": {
        "details": "Returns the value of tokens in existence."
      },
      "transfer(address,uint256)": {
        "details": "See {IERC20-transfer}. Requirements: - `to` cannot be the zero address. - the caller must have a balance of at least `value`."
      },
      "transferFrom(address,address,uint256)": {
        "details": "See {IERC20-transferFrom}. Skips emitting an {Approval} event indicating an allowance update. This is not required by the ERC. See {xref-ERC20-_approve-address-address-uint256-bool-}[_approve]. NOTE: Does not update the allowance if the current allowance is the maximum `uint256`. Requirements: - `from` and `to` cannot be the zero address. - `from` must have a balance of at least `value`. - the caller must have allowance for ``from``'s tokens of at least `value`."
      }
    },
    "title": "MockERC4626Vault",
    "version": 1
  },
  "userdoc": {
    "kind": "user",
    "methods": {
      "asset()": {
        "notice": "The underlying asset managed by the vault (e.g. USDC)."
      },
      "deposit(uint256,address)": {
        "notice": "Deposit `assets` of the underlying, minting shares to `receiver`."
      },
      "previewDeposit(uint256)": {
        "notice": "Preview how many shares a deposit of `assets` would mint."
      },
      "previewRedeem(uint256)": {
        "notice": "Preview how many assets a redemption of `shares` would return."
      },
      "redeem(uint256,address,address)": {
        "notice": "Redeem `shares`, sending the underlying assets to `receiver`."
      },
      "setRateBps(uint256)": {
        "notice": "Owner-free knob to simulate yield accrual / differing vault performance."
      },
      "totalAssets()": {
        "notice": "Current total assets under management (used for APY display off-chain)."
      }
    },
    "notice": "A minimal ERC-4626-style yield vault standing in for a public vault such as a         Morpho/Steakhouse vault. It mints share tokens 1:1 against deposited assets at a         configurable rate (in basis points of 1e4) so tests can model differing APYs/exchange         rates between vaults and exercise the router's pro-rata math.",
    "version": 1
  },
  "storageLayout": {
    "storage": [
      {
        "astId": 39504,
        "contract": "contracts/mocks/MockERC4626Vault.sol:MockERC4626Vault",
        "label": "_balances",
        "offset": 0,
        "slot": "0",
        "type": "t_mapping(t_address,t_uint256)"
      },
      {
        "astId": 39510,
        "contract": "contracts/mocks/MockERC4626Vault.sol:MockERC4626Vault",
        "label": "_allowances",
        "offset": 0,
        "slot": "1",
        "type": "t_mapping(t_address,t_mapping(t_address,t_uint256))"
      },
      {
        "astId": 39512,
        "contract": "contracts/mocks/MockERC4626Vault.sol:MockERC4626Vault",
        "label": "_totalSupply",
        "offset": 0,
        "slot": "2",
        "type": "t_uint256"
      },
      {
        "astId": 39514,
        "contract": "contracts/mocks/MockERC4626Vault.sol:MockERC4626Vault",
        "label": "_name",
        "offset": 0,
        "slot": "3",
        "type": "t_string_storage"
      },
      {
        "astId": 39516,
        "contract": "contracts/mocks/MockERC4626Vault.sol:MockERC4626Vault",
        "label": "_symbol",
        "offset": 0,
        "slot": "4",
        "type": "t_string_storage"
      },
      {
        "astId": 43411,
        "contract": "contracts/mocks/MockERC4626Vault.sol:MockERC4626Vault",
        "label": "rateBps",
        "offset": 0,
        "slot": "5",
        "type": "t_uint256"
      }
    ],
    "types": {
      "t_address": {
        "encoding": "inplace",
        "label": "address",
        "numberOfBytes": "20"
      },
      "t_mapping(t_address,t_mapping(t_address,t_uint256))": {
        "encoding": "mapping",
        "key": "t_address",
        "label": "mapping(address => mapping(address => uint256))",
        "numberOfBytes": "32",
        "value": "t_mapping(t_address,t_uint256)"
      },
      "t_mapping(t_address,t_uint256)": {
        "encoding": "mapping",
        "key": "t_address",
        "label": "mapping(address => uint256)",
        "numberOfBytes": "32",
        "value": "t_uint256"
      },
      "t_string_storage": {
        "encoding": "bytes",
        "label": "string",
        "numberOfBytes": "32"
      },
      "t_uint256": {
        "encoding": "inplace",
        "label": "uint256",
        "numberOfBytes": "32"
      }
    }
  }
}